:020000040800F2
:10000000180800246D03000807280008A12600082E
:1000100005280008D7040008B12B000800000000E4
:100020000000000000000000000000004D2A000851
:10003000D904000800000000092800084F2A000821
:100040008703000887030008870300088703000868
:100050008703000887030008870300088703000858
:100060008703000887030008870300088703000848
:100070008703000887030008870300088703000838
:100080008703000887030008870300088703000828
:10009000E1040008870300088703000887030008BD
:1000A0008703000887030008870300088703000808
:1000B00087030008870300088703000887030008F8
:1000C00087030008870300088703000887030008E8
:1000D00087030008870300088703000887030008D8
:1000E000870300088703000800000000870300085A
:1000F00087030008870300088703000887030008B8
:1001000087030008870300088703000887030008A7
:100110008703000887030008870300088703000897
:100120008703000887030008870300088703000887
:100130008703000887030008870300088703000877
:1001400000000000000000000000000000000000AF
:100150008703000887030008870300088703000857
:100160008703000887030008870300088703000847
:1001700087030008870300088703000800000000C9
:100180008703000887030008870300088703000827
:100190008703000887030008870300088703000817
:1001A0008703000887030008870300080000000099
:1001B00087030008870300088703000887030008F7
:1001C000870300088703000800000000000000000B
:1001D000000000000000000087030008000000008D
:1001E000000000000000000000000000000000000F
:1001F00000000000000000008703000887030008DB
:100200008703000887030008000000008703000838
:100210008703000887030008870300088703000896
:1002200087030008000000008703000800000000AA
:100230008703000887030008000000008703000808
:100240008703000887030008870300088703000866
:100250008703000887030008870300088703000856
:100260008703000887030008870300088703000846
:1002700087030008870300088703000800000000C8
:100280008703000887030008870300088703000826
:10029000000000008703000887030008000000003A
:1002A0000000000087030008870300088703000898
:1002B0008703000887030008870300080505000876
:1002C00087030008870300088703000800F002F88E
:1002D00000F03CF80AA090E8000C82448344AAF1A4
:1002E0000107DA4501D100F031F8AFF2090EBAE8A2
:1002F0000F0013F0010F18BFFB1A43F0010318475A
:100300001C2A00003C2A0000103A24BF78C878C19B
:10031000FAD8520724BF30C830C144BF04680C600B
:10032000704700000023002400250026103A28BF53
:1003300078C1FBD8520728BF30C148BF0B60704757
:100340001FB502F0AFFC1FBD10B510BD00F08AF85C
:100350001146FFF7F5FF02F03DFC00F0A8F803B4EA
:10036000FFF7F2FF03BC00F0AFF800000948804738
:1003700009480047FEE7FEE7FEE7FEE7FEE7FEE787
:10038000FEE7FEE7FEE7FEE704480549054A064B9F
:1003900070470000F12A0008CD020008180200246E
:1003A00018080024180400241804002410B5203A6A
:1003B000C0F00B80B1E81850203AA0E81850B1E81E
:1003C0001850A0E81850BFF4F5AF5FEA027C24BFD4
:1003D000B1E81850A0E8185044BF18C918C0BDE8CB
:1003E00010405FEA827C24BF51F8043B40F8043B94
:1003F00008BF7047D20728BF31F8023B48BF11F849
:10040000012B28BF20F8023B48BF00F8012B7047A2
:100410004FF0000200B5134694469646203922BF9D
:10042000A0E80C50A0E80C50B1F12001BFF4F7AFE8
:10043000090728BFA0E80C5048BF0CC05DF804EBCA
:10044000890028BF40F8042B08BF704748BF20F838
:10045000022B11F0804F18BF00F8012B7047704736
:1004600070477047754600F02BF8AE4605006946A8
:10047000534620F00700854618B020B5FFF784FFEB
:10048000BDE820404FF000064FF000074FF0000895
:100490004FF0000B21F00701AC46ACE8C009ACE816
:1004A000C009ACE8C009ACE8C0098D46704710B57A
:1004B0000446AFF300802046BDE81040FFF74FBF71
:1004C00000487047B801002401491820ABBEFEE780
:1004D000260002007047FEE7704772B6FEE7000094
:1004E000054810B500F0C8FABDE81040034B4021A4
:1004F000034A014800F0F4B9780000240900002400
:100500002C000024014800F0B7BA000018010024B4
:10051000F0B503684FF6FC716D4C426BD3F8845014
:100520008D4345EA8205C3F88450036853F8845F1D
:10053000068F25F47F0545EA06451D60836B654DF2
:100540009F180268D2F888308B4343EA8703C2F8C9
:100550008830026852F8883F868F23F4FE0343EA0E
:1005600006431360066856F8A03FC26B8B4307EB47
:10057000420243EA82033360076857F8A03FB0F8AD
:10058000406023F4FE0343EA06433B60D0E91036A3
:1005900003FB06220368D3F8B0608E4346EA820666
:1005A000C3F8B0600368B0F84860D3F8B07027F4BF
:1005B000FE0747EA0646C3F8B060D0E91267036851
:1005C00006FB0722D3F8AC608E4346EA8206C3F8E6
:1005D000AC60D0E91467036806FB0722D3F8F0602B
:1005E0008E4346EA8206C3F8F0600368B0F85860AC
:1005F000D3F8F07027F47C1747EA0646C3F8F0609A
:100600000368876D53F8C06F02EB47028E4346EADA
:10061000820119600168B0F85C20D1F8C03023F481
:100620007C1343EA0242C1F8C020016890F86020C0
:10063000D1F8C03023F07C5343EA0262C1F8C020F5
:10064000416B04EB8101C166826B01EB82020267A0
:10065000C36B02EBC3024267D0E91034634302EB81
:1006600083028267D0E91234634302EB8302C267DC
:10067000D0E91434634302EB8302C0F88020836D19
:1006800002EBC303C0F88430C46D826E544303EBA5
:100690008403C0F88830046E544303EB8402C0F82E
:1006A0009020AA420AD9D0F89C20032142F02002CF
:1006B000C0F89C2080F898100120F0BD002200E0D6
:1006C00004C1D0F890308B42FAD80020F0BD000071
:1006D00000AC0040FCD30040F0B58E680C69D1E955
:1006E000005744EA0604DFB145F080452C43866E8E
:1006F000D1E906C54F695E4391F8203045EA0C0503
:10070000D0F884E00020D1F80CC047EA03630D4F15
:100710001D430EEB860345EA0C05E3E802450AE0BB
:1007200044EA8544E3E71418155C001DD4F8014041
:1007300045EA042410C3CC6807EB144424788442AF
:10074000F1D8F0BDB02C000870B5044600F00CFEE6
:100750000546601C02D004480078044400F004FE02
:10076000401BA042FAD370BD1800002410B590F8C9
:100770009830012B09D0022B07D0D0F89C1041F003
:100780000201C0F89C10012010BD03689C6D0C4252
:1007900003D1DC6D44F0010404E09C6D31EA0404F3
:1007A0001FD00324DC658B0505D50368D3F8E04032
:1007B0001443C3F8E0404B0505D50368D3F8E44083
:1007C0001443C3F8E4400068084A01EA0203446D98
:1007D000074A1C434465106840EA9170106000208D
:1007E00010BDDC6D44F00204DCE70000FFFFCF3FEA
:1007F00014A8004070B5044690F89800022804D070
:10080000D4F89C0040F008000DE02068D0F8C0301B
:1008100013F07C5F0BD0D0F8C4309B020CD5D4F819
:100820009C0040F40070C4F89C00012070BDD4F816
:100830009C0040F02000F6E7D0F8C400C0F3044567
:1008400020462B46FFF748FF21680120A840C1F849
:10085000D000C4F89400002070BD704770B590F8C7
:100860009820012A09D0022A07D0D0F89C1041F024
:100870000201C0F89C10012070BD0B68CA6883B1EA
:100880000B69072A43EA427325D00C7A4A6942EA87
:1008900084724968006F00EBC100C0E9003200209B
:1008A00070BD072A0DD00C7AD6060D8A4B6943EA33
:1008B000847246EA0543C06E49681A4340F8212015
:1008C000EDE70B8A4FF06055D1E9062442EA034276
:1008D00045EA0423EFE78A69DBE7704770470000C9
:1008E000F0B590F898400025022C04D0D0F89C1068
:1008F00041F008012BE040294FF0004605D0412986
:1009000029D0046D8C4219D942E00468D4F8A07053
:1009100017F4FE0F12D0D4F8A4707F0613D0D4F8C9
:10092000A470FF0105D5D4F8A070B6EBD77F00D135
:100930000125D4F8A470466F446C24E0D0F89C10D4
:1009400041F0200103E0D0F89C1041F48071C0F820
:100950009C100120F0BD0468D4F8B07017F4FE0FAD
:10096000ECD0D4F8B4707F06EDD0D4F8B470FF01A9
:1009700005D5D4F8B070B6EBD77F00D10125D4F8F7
:10098000B470866FC46CC7F305273D446C4302E026
:10099000446DC66F4C4306EB8404266816F080460F
:1009A0005660266836D026F060461660D4F800C03F
:1009B00000262F4F0CF0005CC2F808C0D4F800C02D
:1009C0000CF0004CC2F810C0B4F804C01FFA8CFC44
:1009D000C2F81CC0D4F804C00CF4702CC2F80CC0CF
:1009E000D4F804C00CF4801CC2F814C0D4F804C0BD
:1009F0000CF4001CC2F818C0D4F804C0CCF3066C88
:100A0000C2F820C0D4F804C008344FEADC7CC2F835
:100A100024C008E0C6F38A46C7E700BF14F806C042
:100A200003F806C0761CD2F80CC007EB1C4C9CF8EF
:100A300000C0B445F2D840290AD041290CD0202961
:100A40004FF001020CD200688A40C0F898200DE0F7
:100A50000068C0F8A85009E00068C0F8B85005E088
:100A6000006801F01F018A40C0F89C200020F0BD02
:100A7000B02C0008704700002DE9FF5FDFF80CB3D1
:100A800004460BF10401DBF8000025680F68AA4654
:100A90008007D5F85090696DD5F850806E6D2A6D3D
:100AA000D5F854C02B6D00EA8770009009F47049A6
:100AB0006F6D286D01EA09010191DAF85410DAF836
:100AC0005490DAF8505008F00F0806EA080602962B
:100AD00002F0F00203F071536FEA09061F4000F0C4
:100AE00060700CEA020CCDF80CC0F20501EA0009B6
:100AF0000CD4E843C00509D400214FF48073CAF830
:100B00005030CBF800102046FFF7B4FF700512D428
:100B1000E84340050FD4206800234FF48068D0F8E4
:100B2000DC20D0F8E410C0F85080CBF80030114041
:100B3000204600F007FBDFF858A2009850B1226869
:100B4000830F00EA0A001065CBF8003020460099B8
:100B5000FFF783FE019850B12268830F00EA0A0074
:100B60001065CBF800302046019900F0EDFA0298AC
:100B700050B12268830F00EA0A001065CBF80030FC
:100B80002046029900F0BDFA039850B12268830F05
:100B900000EA0A001065CBF800302046039900F007
:100BA000B1FA30050CD4E843000509D423680020CD
:100BB0004FF400621A65CBF80000204600F0C5FA39
:100BC000B00512D4E84380050FD4206800234FF409
:100BD0000078D0F8D820D0F8E010C0F85080CBF8DA
:100BE00000301140204600F0AEFA30030CD4E84348
:100BF000000309D4236800204FF400221A65CBF8C3
:100C00000000204600F07CFAF0030CD4E843C00357
:100C100009D4236800204FF480321A65CBF8000015
:100C2000204600F08EFA70030CD4E843400309D448
:100C3000226800204FF480231365CBF80000204683
:100C400000F07EFAB0030FD4E84380030CD423688D
:100C500000204FF400321A65CBF80000D4F89C0055
:100C600040F08000C4F89C00B9F1000F0BD022685E
:100C70004FEA997309EA0A001065CBF8003049463B
:100C80002046FFF72BFE5FB12268BB0F07EA0A0080
:100C90001065CBF80030D4F89C003843C4F89C00B1
:100CA0003C492068884268D1606881468068800736
:100CB00063D0D9F82060D9F82410D9F82080D9F869
:100CC0002400D9F820C0D9F82470D9F82030D9F8F8
:100CD0002450D9F8202003F4FC4306F00F0AD9F879
:100CE00024601D40D9F824B008F030080CF4C07C12
:100CF00002F4F02211EA0A0100EA080807EA0C07E8
:100D000006EA0206D9F820A004D0C9F8201020462F
:100D100000F013FAB8F1000005D06168086241469E
:100D2000204600F00CFA6FEA0B0040060ED46FEA82
:100D30000A0040060AD460684021C36BC26B01629E
:100D40002046190C02F03F0200F0F8F92FB160685C
:100D500007623946204600F0EFF935B16068056258
:100D6000D4F89C002843C4F89C0036B16068066241
:100D7000D4F89C003043C4F89C00D4F89C000028B0
:100D800002D02046FFF7A9FDBDE8FF9F10A8004054
:100D9000FFFFCF3F00A000402DE9F04194B08D4906
:100DA0004C2204466846FFF701FB64B18A4D206877
:100DB000A84202D100F58070606094F898004FF06E
:100DC000000820B108E0012014B0BDE8F081204601
:100DD00084F8998000F002F92068816921F01001FF
:100DE000816100F0C1FA0327064604E000F0BCFA76
:100DF000801B0A2811D8206880690007F6D4206873
:100E0000816941F00101816100F0AEFA06460DE012
:100E100000F0AAFA801B0A2808D9D4F89C0040F0F8
:100E20000100C4F89C0084F89870CCE720688069C1
:100E3000C007EDD02068816941F002018161207C0A
:100E400001282068816937D041F040018161607CD0
:100E500001282068816932D021F480418161A07C21
:100E60000128206881692DD041F48051816120687A
:100E7000A268816921F44071114381612068816910
:100E800021F0A40181612068016921F01001016154
:100E9000E068012819D010B302281BD020688169AE
:100EA00041F0800181612068016941F01001016118
:100EB000E06803280ED012E021F04001C6E741F4BB
:100EC0008041CBE721F48051D0E72068816941F06F
:100ED000040103E02068816941F020018161207EE6
:100EE0006FF0FF02D4E90773A68A1102400602EBF5
:100EF0000727A0F10070384327685B1E184301EBF9
:100F000006463043F861A068B0F5407F11D104F186
:100F10002800A68C6FF00F0C89C801EB0641401E1B
:100F200002EB0322104322680CEB0713184308431B
:100F3000D060206E30B12068626ED0F8C0101143CE
:100F4000C0F8C010D4E917126846D14209D0216810
:100F5000A36E51F8C82F50F8233022F007021A432D
:100F60000A60216C49B12168626C51F8BC3F50F8AD
:100F7000226023F0070232430A60A16C51B121685C
:100F8000E36C51F8BC2F50F8233022F0700242EA93
:100F900003120A60216D51B12168626D51F8BC3FA6
:100FA00050F8220023F4E06242EA00200860206842
:100FB000A84204D16068816821F003018160C4F80F
:100FC00094800121C4F89C8084F898102046FFF793
:100FD0009FFAF9E6C02C000800A000402DE9F04778
:100FE000B4B0804614212DA8FFF712FAB421684648
:100FF000FFF70EFA3D4D4FF40040D8F800200127CE
:101000003B4B4103384E0C3D384C9A424FF4405A0A
:101010004FF002084FF003092FD11A910090684653
:1010200000F0C4FA08B1FFF758FA3068401C30608D
:10103000012807D1206840F480702060206800F407
:1010400080703290286840F00200286028680923E8
:10105000CDF8B4A02DA900F00200CDF8C090CDE9E4
:1010600031302448CDE92E8700F070F8002214209A
:10107000114600F03FFA142031E01F4B9A4230D164
:101080001A910090684600F091FA08B1FFF725FA2E
:101090003068401C3060012807D1206840F480701F
:1010A0002060206800F480703290286840F00800CA
:1010B000286028680523CDF8B4A02DA900F0080009
:1010C000CDF8C090CDE931300C48CDE92E8700F045
:1010D0003DF800229F20114600F00CFA9F2000F0FE
:1010E000FBF934B0BDE8F08714000024EC4402584A
:1010F00000A400400004025800D40040000C025834
:1011000070477047704790F89810012907D0D0F8C1
:101110009C1041F00401C0F89C100120704702218E
:1011200080F89810002201688B6923F001038B611D
:10113000C0F89C2010467047704770477047704752
:101140007047704770477047704770472DE9F84FF8
:1011500003247A4D00234FF001094FF0B04B4FF0BC
:101160000F0AE4E009FA03F6324078D00F7907F06D
:101170000307012F01D0022F1AD187684FEA430ECF
:10118000D1F80CC004FA0EF827EA08070CFA0EFC96
:101190004CEA070CC0F808C0476891F804C0B74390
:1011A000CCF3001C0CFA03FC4CEA070CC0F804C09A
:1011B0000E79F643B6070BD0C6684FEA43088F682E
:1011C00004FA08FC26EA0C0607FA08F73743C7605A
:1011D0000E7906F00306022E12D1DE080F694FEADF
:1011E000437C00EB8606B646366A4FEADC6C0AFAA8
:1011F0000CF807FA0CF726EA08063743CEF82070F9
:101200000F7906684FEA430807F0030704FA08FC61
:1012100007FA08F726EA0C06374307604E6816F40B
:10122000403F1CD0464E376847F0020737603668AB
:101230009F0706F00206009623F0030606F1B0466B
:10124000B6463F0FD6F80864DFF8F8800AFA07FCC4
:10125000404526EA0C0603D14FF0000C3AE065E069
:10126000DFF8E4C0604502D14FF0010C32E0DFF856
:10127000DCC0604502D14FF0020C2BE0DFF8D0C09B
:10128000604502D14FF0030C24E0DFF8C8C0604590
:1012900002D14FF0040C1DE0DFF8BCC0604502D164
:1012A0004FF0050C16E0DFF8B4C0604502D14FF0F6
:1012B000060C0FE0DFF8A8C0604502D14FF0070C24
:1012C00008E0DFF8A0C0604502D14FF0090C01E052
:1012D0004FF00A0C0CFA07FC4CEA060CCEF808C4D6
:1012E0004F68DBF80060FF0226EA020600D51643CD
:1012F0005F46CBF80060D1F804C0DBF804605FEA19
:101300008C2C26EA020600D516437E606E684F6874
:1013100026EA0206BF0300D516436E602E684F68AA
:1013200026EA0206FF0300D516432E605B1C0A68FE
:1013300032FA03F67FF416AFBDE8F88F800000584C
:10134000F4440258000002580004025800080258F1
:10135000000C0258001002580014025800180258DD
:10136000001C0258002402580148806870470000A1
:101370001800002402488168027811448160704797
:1013800018000024032010B500F0D4F800F070FE1F
:101390000F4A104914681368C4F3032203F00F03C3
:1013A0008A5CC95C02F01F0201F01F01D0400A4AAA
:1013B00020FA01F11160094908600F2000F010F8CF
:1013C00008B1012010BD00F079F8002010BD000028
:1013D000184402580C2D0008280000242400002482
:1013E00070B50D4D04462878A0B14FF47A71B1FB69
:1013F000F0F00A490968B1FBF0F001F03EF948B994
:10140000102C07D200222146501E00F073F8002055
:101410006C6070BD012070BD180000242400002401
:10142000F0B5154C4378211D0A1D23600378F3B1F4
:1014300043680B60057BC67A817A437B2D07847BEA
:1014400045EA0665C77B90F809C0067A90F800E087
:1014500045EAC14040EA834040EA444040EA074050
:1014600040EA0C2040EA460040EA0E0001E000207D
:1014700008601060F0BD000098ED00E0BFF35F8FE2
:10148000044800210368034A23F480330360703268
:101490001160704724ED00E0074A40F00100064962
:1014A00070321060086840F480300860BFF34F8FDE
:1014B000BFF36F8F7047000024ED00E0054808B5CA
:1014C000016841F002010160006800F00200009034
:1014D00008BD0000F4440258002809DB410900F06F
:1014E0001F028900012001F1E0219040C1F80001B4
:1014F000704700000E4BF0B41B680D46C3F3022387
:10150000C3F10706042E00D90426191D072901D2AC
:10151000002300E0DB1E012404FA06F19C40491E72
:101520002940641E994014402143F0BC01F041BBA6
:101530000CED00E0064900F0070210B54FF6FF047D
:101540000868044B204040EA02201843086010BDA0
:101550000CED00E00000FA05134970B50A68D243AB
:10156000520705D5096801F00701814213D118E03F
:101570000A6822F0070202430A60FFF7F5FE0A4DEF
:101580004FF47A760446083D07E000BFFFF7ECFE13
:10159000001BB04201D9012070BD2868C0438004FF
:1015A000F4D4002070BD00000C4802582DE9FC5F07
:1015B0000446FC4F50F8241B0025DFF8ECA32E4610
:1015C000009008011DD5206E50B1B0F5801F0CD0E1
:1015D000B0F5001F0ED0B0F5401F1DD001250FE063
:1015E000386840F40030386016E00221201D01F018
:1015F0000DF903E00098022101F098F905000BD0E5
:101600002E462088C00523D5606D05281ED2DFE850
:1016100000F00C11161B1B00226EDAF8001021F4EA
:1016200040111143CAF80010EBE7386840F400306D
:10163000386009E00021201D01F0E8F803E000987F
:10164000002101F073F90546BDB100E001252E46E9
:101650002088DFF85483400508F108082FD5D4F816
:10166000A000B0F5C00F28D010DCB8B1B0F5001F55
:1016700019D0B0F5800F0FD11AE0626DDAF80010C2
:1016800021F007011143CAF80010E1E7B0F5000F9F
:1016900013D0B0F5200F10D001250FE0386840F4CA
:1016A0000030386009E00021201D01F0AFF803E0B0
:1016B0000098002101F03AF905468DB12E462088A8
:1016C000000530D5D4F8A400B0F1407F29D011DC5A
:1016D000C0B1B0F1807F1AD0B0F1007F10D11BE013
:1016E000D4F8A020D8F8001021F460011143C8F804
:1016F0000010E4E7B0F1806F13D0B0F1A06F10D00C
:1017000001250FE0386840F40030386009E000211E
:10171000201D01F07BF803E00098002101F006F99C
:1017200005468DB12E462068DFF87CB28001ABF112
:10173000040B1FD5A06CD8B110280FD0202812D0D0
:10174000302815D0012514E0D4F8A420D8F80010D2
:1017500021F0E0611143C8F80010E4E7386840F474
:101760000030386004E00221201D01F04FF80546EA
:101770006DB12E462088C0042BD5A06DB0F5005F5A
:1017800020D00DDCA0B1B0F5805F0FD115E0A26CC8
:10179000DBF8001021F030011143CBF80010E9E72D
:1017A000B0F5405F13D0B0F5804F10D001250FE0A9
:1017B000386840F40030386009E00021201D01F055
:1017C00025F803E00098002101F0B0F8054685B146
:1017D0002E462088800429D5E06DB0F5403F23D007
:1017E00010DC08B3B0F5803F14D0B0F5003F0FD146
:1017F00015E0A26DDAF8001021F4E0411143CAF8B7
:101800000010E6E7B0F5802F0ED0B0F5A02F0BD07A
:1018100001250AE00121201D00F0F8FF03E00098F7
:10182000012101F083F805468DB12E462088400441
:101830002AD5D4F8A800B0F1405F23D010DC08B35B
:10184000B0F1805F14D0B0F1005F0FD115E0E26D10
:10185000DAF8001021F4E0211143CAF80010E5E79E
:10186000B0F1804F0ED0B0F1A04F0BD001250AE0AF
:101870000121201D00F0CAFF03E00098012101F0C2
:1018800055F805466DB12E46208800041FD5A06E80
:10189000D8B1B0F1805F0ED0B0F1005F10D001255B
:1018A00014E0D4F8A820D8F8001021F0E04111434A
:1018B000C8F80010E8E7386840F40030386004E009
:1018C0000121201D00F0A2FF05466DB12E462068C3
:1018D000C0011ED5606CD0B101280ED0022811D0F5
:1018E000032814D0012513E0A26EDAF8001021F0CD
:1018F00040511143CAF80010E9E7386840F400305D
:10190000386004E00221201D00F080FF054665B12B
:101910002E462068400257D52448016841F4807162
:101920000160FFF721FD81460EE0626CDBF80010DC
:1019300021F003011143CBF80010EAE7FFF714FD93
:10194000A0EB090064283DD818480068C005F5D50B
:1019500075BBDFF85490B4F8AC1009F12009D9F840
:10196000000001F4407100F44070884211D0D9F8B1
:101970000010D9F8002021F4407142F48032C9F8F7
:101980000020D9F8002022F48032C9F80020C9F8DC
:101990000010D4F8AC00B0F5807F28D1FFF7E4FC4C
:1019A000019020E02C44025850440258004802584C
:1019B00009E000BFFFF7D8FC0199411A41F28830D5
:1019C000814210D903252E462078DFF82494C007E1
:1019D0003DD0606F182838D026DC80B3082829D085
:1019E000102825D12CE0D9F800008007E2D5D4F8E2
:1019F000AC10C1F301200328FE480DD0016821F48A
:101A00007C510160B4F8AC20D9F80010C2F30B028D
:101A10001143C9F80010D7E7F74A036802EA111228
:101A200023F47C511143ECE720280ED028280CD059
:101A300001250BE00121201D00F0E8FE04E004E098
:101A40000098012100F072FF05465DB12E46207816
:101A500080071ED5206F062819D2DFE800F0160C8B
:101A600011161616626FD9F8001021F038011143D3
:101A7000C9F80010EBE70121201D00F0C7FE03E0CC
:101A80000098012100F052FF054675B100E00125E4
:101A90002E46207840071FD5D4F88C00062819D28E
:101AA000DFE800F0160C11161616226FD9F8001098
:101AB00021F007011143C9F80010EAE70121201DB8
:101AC00000F0A4FE03E00098012100F02FFF05467E
:101AD0009DB100E001252E46207880062BD5D4F854
:101AE0008800B0F1405F24D011DC10B3B0F1805F0A
:101AF00015D0B0F1005F10D116E0D4F88C20D8F8E2
:101B0000001021F007011143C8F80010E4E7B0F11C
:101B1000804F0ED0B0F1A04F0BD001250AE000217C
:101B2000201D00F073FE03E00098022100F0FEFE8D
:101B300005468DB12E46207840062BD5D4F894006A
:101B4000B0F5406F24D011DC10B3B0F5806F15D024
:101B5000B0F5006F10D116E0D4F88820D9F8001045
:101B600021F0E0411143C9F80010E4E7B0F5805FCF
:101B70000ED0B0F5A05F0BD001250AE00021201D9A
:101B800000F044FE03E00098022100F0CFFE05467D
:101B90008DB12E46207800062BD5D4F89800B0F5EC
:101BA000C04F24D011DC10B3B0F5005F15D0B0F5F4
:101BB000804F10D116E0D4F89420D8F8001021F40A
:101BC000E0511143C8F80010E4E7B0F5004F0ED023
:101BD000B0F5204F0BD001250AE00021201D00F0B8
:101BE00015FE03E00098022100F0A0FE054645B175
:101BF0002E46207800071CD5E06FB0F5805F0AD034
:101C00000FE0D4F89820D8F8001021F46041114377
:101C1000C8F80010EDE70098022100F087FE00B13F
:101C20000126E26FD9F8001021F440511143C9F8A0
:101C300000102078C00613D5D4F89000B0F5807F4E
:101C400005D10098022100F071FE00B10126D4F800
:101C50009020D8F8001021F440711143C8F800100A
:101C60002068000316D5D4F89C0038B1B0F5803F49
:101C700009D0B0F5003F0BD001250AE00021201D5E
:101C800000F0C4FD03E00098022100F04FFE05467D
:101C900085B12E462068400322D5D4F88000B0F5E7
:101CA000801F11D0B0F5001F13D0B0F5401F15D024
:101CB000012514E0D4F89C20D8F8001021F440311C
:101CC0001143C8F80010E5E7386840F40030386088
:101CD00004E00098012100F029FE054655B12E468A
:101CE0002068C0031CD5E06C70B1B0F5803F10D007
:101CF000012514E0D4F88020D9F8001021F4401117
:101D00001143C9F80010EBE7386840F40030386040
:101D100004E00221201D00F079FD0546CDB12E46DC
:101D20002068800005D50098022100F0FFFD00B179
:101D30000126206880031BD5A06FB8B1B0F5807F65
:101D400010D0B0F5007F11D0B0F5407F0ED0012546
:101D50000DE0E26CDBF8001021F480311143CBF888
:101D60000010DDE7386840F400303860F5B32E46E7
:101D70002068C00207D5E26EDAF8001021F00041B9
:101D80001143CAF800102068800207D5626EDAF8A5
:101D9000001021F080711143CAF800102068400043
:101DA00009D51448016821F4004101600168D4F8A4
:101DB000B020114301602068002807DA226DDBF8AB
:101DC000001021F040511143CBF8001020680002B0
:101DD00008D5D4F88420D9F8001021F4400111432B
:101DE000C9F800109EB10120BDE8FC9F06E000008C
:101DF0005444025810440258CFFFFF00A26FD9F894
:101E0000001021F440711143C9F80010B0E7002020
:101E1000EAE700002DE9F05F04000F467ED0DFF80E
:101E20003882D8F8000000F00F00B8420CD2D8F881
:101E3000001021F00F013943C8F80010D8F8000055
:101E400000F00F00B84269D12078844D40070AD5D0
:101E50002069296801F07001884204D9296821F0BD
:101E600070010143296020787C4E361D00070AD599
:101E70006069316801F07001884204D9316821F04D
:101E80007001014331602078C0060AD5A06931682D
:101E900001F4E061884204D9316821F4E061014332
:101EA00031602078DFF8B4B180060BF1080B0CD557
:101EB000E1695846DBF8002002F07002914204D933
:101EC000026822F070020A430260207880070AD577
:101ED000E068296801F00F01884204D9296821F0DF
:101EE0000F01014329602078C0073ED05B49A268FA
:101EF0002868183920F47060104328606068022850
:101F000018D0032819D00968012819D049070029D9
:101F10004ADADFF848A1AAF1080A00E044E0DAF85A
:101F2000002022F007020243CAF80020FFF71CFA43
:101F3000814612E009688903E9E709688901E6E753
:101F4000C905E4E7FFF710FAA0EB090141F2883078
:101F5000814202D90320BDE8F09F6168DAF80000F1
:101F600000F03800B0EBC10FECD1207880070AD523
:101F7000E068296801F00F01884204D2296821F045
:101F80000F0101432960D8F80010404601F00F010D
:101F9000B9420BD9016821F00F0139430160006893
:101FA00000F00F00B84201D00120D4E720784007AC
:101FB0000AD52069296801F07001884204D2296895
:101FC00021F0700101432960207800070AD560697B
:101FD000316801F07001884204D2316821F070014B
:101FE000014331602078C0060AD5A069316801F448
:101FF000E061884204D2316821F4E061014331603C
:10200000207880060CD5E1695846DBF8002002F004
:102010007002914204D2026822F070020A43026008
:1020200000F026F80E492A682B68C2F3032203F059
:102030000F038A5CC95C02F01F0201F01F01D0404F
:10204000084A20FA01F11160074908600748006852
:10205000BDE8F05FFFF7C4B90020005218440258F1
:102060000C2D000828000024240000241C0000245B
:10207000454970B545480968434B103B11F038029B
:1020800008D00111082A03D0102A0BD0182A0BD02F
:10209000084670BD19688906FBD51968C1F3C101EE
:1020A000C84070BD3A4870BD3749374D18310C1DD6
:1020B00024350A68096826682D6802F0030406F0D2
:1020C0000102C1F30511C5F3CC0515FB02F200EEC8
:1020D000102AB8EE400AE9B32F4ADFED2E0AB7EE18
:1020E000001A6CB1DFED2D1A012C01D0022C43D067
:1020F00002EE101A1068F8EE422A81EEA22A1EE0C3
:102100001C68A40611D51B6801EE901A1168C3F370
:10211000C103F8EE612AD84001EE900AC1F308002D
:10212000F8EE611A81EEA22A0BE001EE901ADFEDC3
:102130001C2A00BFF8EE611A106882EEA12AC0F3D3
:10214000080001EE900AF8EE611A40EE201A31EE16
:10215000810A00E015E022EE000A1068C0F3462074
:10216000401C00EE900AF8EE600A80EE201ABCEEE9
:10217000C10A10EE100A70BD01EE901ADFED092AB7
:10218000D8E7002070BD0000104402580090D00332
:1021900000127A0000000039304402580024744ACA
:1021A0000024744C0024F44A2DE9F04704007DD04B
:1021B000FF4F2078FE4D1837DFF8F483103DC0073D
:1021C00048D0D8F80000396800F03800102815D041
:1021D000182803D101F0030002280FD06068B0F581
:1021E000803F12D010B1B0F5A02F18D0286820F48D
:1021F00080302860286820F4802009E02868800367
:1022000028D560680028D2D024E0286840F48030C7
:102210002860606888B1FFF7A7F8064609E02868DB
:1022200040F480202860F0E7FFF79EF8801B6428C8
:102230007ED828688003F7D50CE0FFF795F80646AE
:1022400005E000BFFFF790F8801B6428F0D82868ED
:102250008003F7D42078800756D5D8F80000DFF83F
:102260005093396810F03800A9F10C090ED01828E5
:1022700001D188070AD0E068A8B3296821F01901C4
:1022800001432960FFF770F8064628E028684007F8
:1022900002D5E06800288AD0E168286820F019009B
:1022A00008432860FFF760F8064606E0D2E000BF6A
:1022B000FFF75AF8801B0228BAD828684007F7D5DC
:1022C000217CD9F8002022F0FE4242EA0161C9F8DF
:1022D000001019E0FFF748F8801B0228A8D82868EA
:1022E0004007F7D5ECE7FFE7286820F001002860F9
:1022F000FFF73AF8064604E0FFF736F8801B02289D
:1023000096D828684007F7D42078C00646D5D8F874
:102310000000DFF89C92396800F03800A9F1040948
:10232000082812D0182805D101F00300012800E088
:10233000CEE00AD0E0690028286820D040F0800074
:102340002860FFF711F8064615E02868C00502D599
:10235000E06980287ED194F82010D9F8002022F07E
:102360007C5242EA0161C9F8001017E0FEF7FCFF59
:10237000801B0228A0D82868C005F7D5EBE720F01D
:1023800080002860FEF7F0FF064604E0FEF7ECFF51
:10239000801B022890D82868C005F7D42078000751
:1023A00029D583486169643000298146016811D0CC
:1023B00041F001010160FEF7D7FF064605E000BFCE
:1023C000FEF7D2FF801B022888D8D9F800008007CA
:1023D000F6D510E021F001010160FEF7C5FF0646C9
:1023E00005E000BFFEF7C0FF801B022870D8D9F8B7
:1023F00000008007F6D42078800623D5A069002845
:10240000286810D040F480502860FEF7ADFF0646E3
:1024100005E000BFFEF7A8FF801B022858D82868F7
:102420008004F7D50EE020F480502860FEF79CFF72
:10243000064604E0FEF798FF801B022848D828686B
:102440008004F7D42078400751D5DFF86891D9F897
:10245000001000E00DE141F48071C9F80010FEF7B2
:1024600083FF064605E000BFFEF77EFF801B642861
:102470002ED8D9F80000C005F6D54D4EA0686036BC
:1024800001280AD008B1052813D0306820F00100D7
:102490003060306820F0040002E0306840F0010055
:1024A0003060A06841F2883A98B1FEF75DFF81463E
:1024B0000AE0306840F004003060EEE7FEF754FFB9
:1024C000A0EB0901514503D830688007F6D50EE02E
:1024D00072E0FEF749FF814606E000BFFEF744FFC9
:1024E000A0EB0901514567D830688007F6D4606ACF
:1024F000F0B34146DFF8B88008F120080968C1F35D
:10250000C201032977D00228286820F08070286053
:1025100003D0FEF729FF044680E0FEF725FF0646BC
:1025200005E000BFFEF720FF801B022873D8286853
:102530008001F7D4E26A40F2F331386854F8283F5A
:10254000884340EA021018433860217B4FF4FE0CA8
:1025500022894FF0FE47268A4902207D521E761EB0
:10256000A1F5007189B20CEA0646C2F3080200E048
:1025700081E01143401E314307EA00620C481143D9
:102580000B4A1C30C8F800102432016821F0010108
:10259000016011684FF6F876236AB14341EAC3013E
:1025A00011600168A26921F00C011143016004E08F
:1025B00010440258004802582DE00168E26921F0F9
:1025C000020111430160016841F48031016001683A
:1025D00041F400310160016841F48021016001682B
:1025E00041F001010160286840F080702860FEF72A
:1025F000BBFE044605E015E0FEF7B6FE001B022810
:1026000009D828688001F7D535E000BFFEF7ACFE99
:10261000001B022802D90320BDE8F087286880014A
:10262000F4D428E039680128D8F8000021D0A26A43
:1026300001F0030393421CD1E26AC1F305118A42FF
:1026400017D1216BC0F30802491E8A4211D1616B78
:10265000C0F34622491E91420BD1A16BC0F3064242
:10266000491E914205D1E16BC0F30660491E8142CB
:1026700001D00120D0E70020CEE7401EB0F1807FDE
:1026800010B501D3012010BD4FF0E02460610F218F
:10269000601700F08EFA0020A0610721216110BDB3
:1026A000FEE700002D480822F0B52B4F002489B02A
:1026B000846007600125C4601F26047404214474EB
:1026C00010238474C661C0E90552C0E90825C0E939
:1026D0000A26C0E90C240222C0E90E540564C0E9B0
:1026E0001112C0E91315C0E91513C3650366C0E9EB
:1026F0001941FEF751FB08B172B6FEE740F6FF70D4
:102700000094CDE9024569460194CDE9044013489F
:10271000FEF7A4F808B172B6FEE71048FEF7F3FC26
:1027200008B172B6FEE70D4800220121FEF71EF83F
:1027300008B172B6FEE709480F224FF40021243891
:10274000C0E90024C0E90241046144618461C461BC
:10275000046209B0F0BD000000A40040780000242D
:1027600027480421F0B5254F002489B00760C0E94F
:102770000241047408224474012584741F26C66132
:102780001023C0E90552C0E90825C0E90A26C0E9BE
:102790000C240222C0E90E540464C0E91112C0E9FD
:1027A0001315C0E91513C3650366C0E91941FEF7A7
:1027B000F3FA08B172B6FEE740F6FF700094CDE977
:1027C000024569460194CDE904400D48A038FEF762
:1027D00045F808B172B6FEE70948FEF794FC08B167
:1027E00072B6FEE7064800220121FDF7BFFF002870
:1027F00001D072B6FEE709B0F0BD000000D4004081
:1028000018010024FEE7FEE7704700002DE9F047BD
:10281000454D044689464FF0000A2868C0438007AA
:102820000AD0414E283E306820F080603060FEF7CC
:102830009BFD0746B04608E00120BDE8F08700BFD9
:10284000FEF792FDC01B022867D8D8F800000001EF
:10285000F6D4206829684FF4FE0721F47C313E024B
:1028600041EA00302860207AA389B4F804C040020D
:102870002D4D2D495B1E227CACF1010C1035091D3C
:10288000A0F5007080B2521ECCF3080C07EA034397
:1028900040EA0C00184306EA026210432860086808
:1028A000626920F0C000104308600A68A06922F045
:1028B000200202430A60281D0A6822F010020A6002
:1028C00002684FF6F873E4699A4342EAC402026070
:1028D0000868B9F1000F40F010020A6011D00868D2
:1028E000B9F1010F11D040F400100860D8F80000D1
:1028F000444640F08060C8F80000FEF735FD05460C
:102900000DE0086840F40020EFE740F48010ECE7A9
:10291000FEF72AFD401B022801D903208DE720681D
:102920000001F5D5504688E7284402582DE9F047C4
:10293000454D044689464FF0000A2868C043800789
:102940000AD0414E283E306820F080503060FEF7BB
:102950000BFD0746B04608E00120BDE8F08700BF48
:10296000FEF702FDC01B022867D8D8F800008000DF
:10297000F6D4208829684FF4FE0721F07C713E02CE
:1029800041EA00502860207AA389B4F804C04002CC
:102990002D4D2D495B1E227CACF1010C1835091D13
:1029A000A0F5007080B2521ECCF3080C07EA034376
:1029B00040EA0C00184306EA0262104328600868E7
:1029C000626920F44060104308600A68A06922F43C
:1029D000007202430A60281D0A6822F480720A60AD
:1029E00002684FF6F873E4699A4342EAC40202604F
:1029F0000868B9F1000F40F480720A6011D00868CD
:102A0000B9F1010F11D040F080700860D8F80000D3
:102A1000444640F08050C8F80000FEF7A5FC05468B
:102A20000DE0086840F48000EFE740F40000ECE7B8
:102A3000FEF79AFC401B022801D903208DE720688D
:102A40008000F5D5504688E7284402587047FEF7C5
:102A500091BC000070B59CB04C216846FDF7D8FCD5
:102A6000202113A8FDF7D4FC0220FEF775FD1F48B6
:102A70000024016821F4404141F4004101600168F3
:102A800001F440411B910168C9438904FBD4022031
:102A900009900121C2033C231825CDE900120AAA9E
:102AA0000C2682E80B00CDE90D05CDE910640F90EE
:102AB00068461294FFF778FB08B172B6FEE7402033
:102AC0001A9008230501CDE9163013ABCDE918059E
:102AD0003F21032283E81600022113A8FFF79AF989
:102AE000002801D072B6FEE71CB070BD184802582D
:102AF0002748F0B5274A016841F470010160106869
:102B000000F00F00072804D2106820F00F00C01D4D
:102B1000106021490020204C10340B681F4D43F0F9
:102B200001030B6020600B682B400B60136803F0FF
:102B30000F03072B04D9136823F00F03DB1D136069
:102B4000154C174A1834174B261D371D2060124CA0
:102B5000154D28343060261D3860371D23603B1D1D
:102B600035601C1D3A60251D2E1D1860331D226026
:102B70002860326018600A6843F2D204064B0B4D9D
:102B800022F4802260330A6018602C60F0BD0000DF
:102B900088ED00E000200052004402587FEDF6EA84
:102BA00080020101000202020000FF010040005209
:102BB000FEE7090700284FEA116104DB00F1E0207D
:102BC00080F80014704700F00F0000F1E02080F85A
:102BD000141D70471FB500240094019402940394BF
:102BE000FEF74CFC01208DF80C001F218DF8081019
:102BF00087228DF809208DF80D008DF800006846B9
:102C00008DF80A408DF80E408DF8014001948DF842
:102C10000B408DF80F40FEF703FC0420FEF73CFC50
:102C2000FEF7B0FBFFF716FF1B48016841F080017B
:102C30000160016801F080010091016841F002012A
:102C40000160016801F002010091016841F0080192
:102C50000160006800F008000090FFF723FDFFF717
:102C60007FFD0E4C651EC820FDF76EFD0C490B4A1A
:102C700001F12400FDF7BEFD0949084A01F1C40035
:102C8000FDF7B8FD2878401C28706078401C607003
:102C90006420FDF759FDE6E7E044025801000024F6
:102CA000540000244FF04070E1EE100A704700001D
:102CB0000001020304050607080C10141820304018
:102CC0000000000000000000000000000000000004
:102CD00000000000010000000200000003000000EE
:102CE00004000000000000000500000000000000DB
:102CF00000000000000000000600000000000000CE
:102D000000000000000000000700000000000000BC
:102D10000102030401020304060708093C2D000810
:102D2000000000242C00000008030008682D0008A3
:102D30002C000024EC07000024030008004C616F05
:102D40004C69313233000000000000000000000038
:102D50000000000001000000100000000000000062
:082D60000090D0030090D003A5
:04000005080002CD20
:00000001FF
